{
  "contractName": "Election",
  "abi": [
    {
      "constant": true,
      "inputs": [
        {
          "name": "",
          "type": "uint256"
        }
      ],
      "name": "candidates",
      "outputs": [
        {
          "name": "id",
          "type": "uint32"
        },
        {
          "name": "name",
          "type": "string"
        },
        {
          "name": "votes",
          "type": "uint256"
        }
      ],
      "payable": false,
      "stateMutability": "view",
      "type": "function"
    },
    {
      "constant": true,
      "inputs": [],
      "name": "cancount",
      "outputs": [
        {
          "name": "",
          "type": "uint32"
        }
      ],
      "payable": false,
      "stateMutability": "view",
      "type": "function"
    },
    {
      "inputs": [],
      "payable": false,
      "stateMutability": "nonpayable",
      "type": "constructor"
    },
    {
      "anonymous": false,
      "inputs": [
        {
          "indexed": false,
          "name": "response",
          "type": "string"
        }
      ],
      "name": "temp",
      "type": "event"
    },
    {
      "constant": false,
      "inputs": [
        {
          "name": "vid",
          "type": "uint256"
        },
        {
          "name": "cid",
          "type": "uint256"
        }
      ],
      "name": "castVote",
      "outputs": [
        {
          "name": "",
          "type": "string"
        }
      ],
      "payable": false,
      "stateMutability": "nonpayable",
      "type": "function"
    },
    {
      "constant": false,
      "inputs": [
        {
          "name": "queryID",
          "type": "bytes32"
        },
        {
          "name": "result",
          "type": "string"
        }
      ],
      "name": "__callback",
      "outputs": [],
      "payable": false,
      "stateMutability": "nonpayable",
      "type": "function"
    },
    {
      "constant": false,
      "inputs": [
        {
          "name": "_myid",
          "type": "bytes32"
        },
        {
          "name": "_result",
          "type": "string"
        },
        {
          "name": "_proof",
          "type": "bytes"
        }
      ],
      "name": "__callback",
      "outputs": [],
      "payable": false,
      "stateMutability": "nonpayable",
      "type": "function"
    },
    {
      "constant": false,
      "inputs": [],
      "name": "testOracle",
      "outputs": [],
      "payable": true,
      "stateMutability": "payable",
      "type": "function"
    }
  ],
  "bytecode": "0x60806040523480156200001157600080fd5b50620000616040805190810160405280600981526020017f53616c616420417373000000000000000000000000000000000000000000000081525062000105640100000000026401000000009004565b620000b06040805190810160405280601281526020017f426c61636b20446f6e616c64205472756d70000000000000000000000000000081525062000105640100000000026401000000009004565b620000ff6040805190810160405280600c81526020017f4b65616e7520526561766573000000000000000000000000000000000000000081525062000105640100000000026401000000009004565b620002a5565b606060405190810160405280600760009054906101000a900463ffffffff1663ffffffff168152602001828152602001600081525060066000600760009054906101000a900463ffffffff1663ffffffff16815260200190815260200160002060008201518160000160006101000a81548163ffffffff021916908363ffffffff1602179055506020820151816001019080519060200190620001aa929190620001f6565b50604082015181600201559050506007600081819054906101000a900463ffffffff168092919060010191906101000a81548163ffffffff021916908363ffffffff1602179055505050565b828054600181600116156101000203166002900490600052602060002090601f016020900481019282601f106200023957805160ff19168380011785556200026a565b828001600101855582156200026a579182015b82811115620002695782518255916020019190600101906200024c565b5b5090506200027991906200027d565b5090565b620002a291905b808211156200029e57600081600090555060010162000284565b5090565b90565b6117ec80620002b56000396000f3fe608060405260043610610078576000357c0100000000000000000000000000000000000000000000000000000000900463ffffffff16806327dc297e1461007d5780632c0a3f891461014f5780633477ee2e1461020d57806338bbfa50146102db578063a2152e3214610444578063b865d9091461044e575b600080fd5b34801561008957600080fd5b5061014d600480360360408110156100a057600080fd5b8101908080359060200190929190803590602001906401000000008111156100c757600080fd5b8201836020820111156100d957600080fd5b803590602001918460018302840111640100000000831117156100fb57600080fd5b91908080601f016020809104026020016040519081016040528093929190818152602001838380828437600081840152601f19601f820116905080830192505050505050509192919290505050610485565b005b34801561015b57600080fd5b506101926004803603604081101561017257600080fd5b810190808035906020019092919080359060200190929190505050610566565b6040518080602001828103825283818151815260200191508051906020019080838360005b838110156101d25780820151818401526020810190506101b7565b50505050905090810190601f1680156101ff5780820380516001836020036101000a031916815260200191505b509250505060405180910390f35b34801561021957600080fd5b506102466004803603602081101561023057600080fd5b8101908080359060200190929190505050610684565b604051808463ffffffff1663ffffffff16815260200180602001838152602001828103825284818151815260200191508051906020019080838360005b8381101561029e578082015181840152602081019050610283565b50505050905090810190601f1680156102cb5780820380516001836020036101000a031916815260200191505b5094505050505060405180910390f35b3480156102e757600080fd5b50610442600480360360608110156102fe57600080fd5b81019080803590602001909291908035906020019064010000000081111561032557600080fd5b82018360208201111561033757600080fd5b8035906020019184600183028401116401000000008311171561035957600080fd5b91908080601f016020809104026020016040519081016040528093929190818152602001838380828437600081840152601f19601f820116905080830192505050505050509192919290803590602001906401000000008111156103bc57600080fd5b8201836020820111156103ce57600080fd5b803590602001918460018302840111640100000000831117156103f057600080fd5b91908080601f016020809104026020016040519081016040528093929190818152602001838380828437600081840152601f19601f820116905080830192505050505050509192919290505050610756565b005b61044c61077a565b005b34801561045a57600080fd5b50610463610818565b604051808263ffffffff1663ffffffff16815260200191505060405180910390f35b61048d61082e565b73ffffffffffffffffffffffffffffffffffffffff163373ffffffffffffffffffffffffffffffffffffffff161415156104c657600080fd5b7f6ba31b484c93c06734efc1e44b04ef472b8515f2a8989fc062d25f40b2e14467816040518080602001828103825283818151815260200191508051906020019080838360005b8381101561052857808201518184015260208101905061050d565b50505050905090810190601f1680156105555780820380516001836020036101000a031916815260200191505b509250505060405180910390a15050565b60606000151561057584610ba1565b151514156105ba576040805190810160405280601481526020017f4e6f7420612076616c696420566f746572204944000000000000000000000000815250905061067e565b600115156005600085815260200190815260200160002060009054906101000a900460ff16151514151561061e5760016005600085815260200190815260200160002060006101000a81548160ff02191690831515021790555061061d82610bac565b5b606060405190810160405280602881526020017f596f757220766f746520686173206265656e207265636f72646564207375636381526020017f65737366756c6c7900000000000000000000000000000000000000000000000081525090505b92915050565b60066020528060005260406000206000915090508060000160009054906101000a900463ffffffff1690806001018054600181600116156101000203166002900480601f0160208091040260200160405190810160405280929190818152602001828054600181600116156101000203166002900480156107465780601f1061071b57610100808354040283529160200191610746565b820191906000526020600020905b81548152906001019060200180831161072957829003601f168201915b5050505050908060020154905083565b60006001026003600080600102815260200190815260200160002081905550505050565b6108156040805190810160405280600381526020017f55524c0000000000000000000000000000000000000000000000000000000000815250606060405190810160405280604081526020017f6a736f6e2868747470733a2f2f6170692e70726f2e636f696e626173652e636f81526020017f6d2f70726f64756374732f4554482d5553442f7469636b6572292e7072696365815250610bd5565b50565b600760009054906101000a900463ffffffff1681565b60008073ffffffffffffffffffffffffffffffffffffffff16600160009054906101000a900473ffffffffffffffffffffffffffffffffffffffff1673ffffffffffffffffffffffffffffffffffffffff1614806108b6575060006108b4600160009054906101000a900473ffffffffffffffffffffffffffffffffffffffff1661118e565b145b156108c7576108c56000611199565b505b600160009054906101000a900473ffffffffffffffffffffffffffffffffffffffff1673ffffffffffffffffffffffffffffffffffffffff166338cc48316040518163ffffffff167c0100000000000000000000000000000000000000000000000000000000028152600401602060405180830381600087803b15801561094d57600080fd5b505af1158015610961573d6000803e3d6000fd5b505050506040513d602081101561097757600080fd5b810190808051906020019092919050505073ffffffffffffffffffffffffffffffffffffffff166000809054906101000a900473ffffffffffffffffffffffffffffffffffffffff1673ffffffffffffffffffffffffffffffffffffffff16141515610ade57600160009054906101000a900473ffffffffffffffffffffffffffffffffffffffff1673ffffffffffffffffffffffffffffffffffffffff166338cc48316040518163ffffffff167c0100000000000000000000000000000000000000000000000000000000028152600401602060405180830381600087803b158015610a6357600080fd5b505af1158015610a77573d6000803e3d6000fd5b505050506040513d6020811015610a8d57600080fd5b81019080805190602001909291905050506000806101000a81548173ffffffffffffffffffffffffffffffffffffffff021916908373ffffffffffffffffffffffffffffffffffffffff1602179055505b6000809054906101000a900473ffffffffffffffffffffffffffffffffffffffff1673ffffffffffffffffffffffffffffffffffffffff1663c281d19e6040518163ffffffff167c010000000000000000000000000000000000000000000000000000000002815260040160206040518083038186803b158015610b6157600080fd5b505afa158015610b75573d6000803e3d6000fd5b505050506040513d6020811015610b8b57600080fd5b8101908080519060200190929190505050905090565b600060019050919050565b600660008281526020019081526020016000206002016000815480929190600101919050555050565b60008073ffffffffffffffffffffffffffffffffffffffff16600160009054906101000a900473ffffffffffffffffffffffffffffffffffffffff1673ffffffffffffffffffffffffffffffffffffffff161480610c5d57506000610c5b600160009054906101000a900473ffffffffffffffffffffffffffffffffffffffff1661118e565b145b15610c6e57610c6c6000611199565b505b600160009054906101000a900473ffffffffffffffffffffffffffffffffffffffff1673ffffffffffffffffffffffffffffffffffffffff166338cc48316040518163ffffffff167c0100000000000000000000000000000000000000000000000000000000028152600401602060405180830381600087803b158015610cf457600080fd5b505af1158015610d08573d6000803e3d6000fd5b505050506040513d6020811015610d1e57600080fd5b810190808051906020019092919050505073ffffffffffffffffffffffffffffffffffffffff166000809054906101000a900473ffffffffffffffffffffffffffffffffffffffff1673ffffffffffffffffffffffffffffffffffffffff16141515610e8557600160009054906101000a900473ffffffffffffffffffffffffffffffffffffffff1673ffffffffffffffffffffffffffffffffffffffff166338cc48316040518163ffffffff167c0100000000000000000000000000000000000000000000000000000000028152600401602060405180830381600087803b158015610e0a57600080fd5b505af1158015610e1e573d6000803e3d6000fd5b505050506040513d6020811015610e3457600080fd5b81019080805190602001909291905050506000806101000a81548173ffffffffffffffffffffffffffffffffffffffff021916908373ffffffffffffffffffffffffffffffffffffffff1602179055505b60008060009054906101000a900473ffffffffffffffffffffffffffffffffffffffff1673ffffffffffffffffffffffffffffffffffffffff1663524f3889856040518263ffffffff167c01000000000000000000000000000000000000000000000000000000000281526004018080602001828103825283818151815260200191508051906020019080838360005b83811015610f30578082015181840152602081019050610f15565b50505050905090810190601f168015610f5d5780820380516001836020036101000a031916815260200191505b5092505050602060405180830381600087803b158015610f7c57600080fd5b505af1158015610f90573d6000803e3d6000fd5b505050506040513d6020811015610fa657600080fd5b8101908080519060200190929190505050905062030d403a02670de0b6b3a764000001811115610fdd576000600102915050611188565b6000809054906101000a900473ffffffffffffffffffffffffffffffffffffffff1673ffffffffffffffffffffffffffffffffffffffff1663adf59f9982600087876040518563ffffffff167c0100000000000000000000000000000000000000000000000000000000028152600401808481526020018060200180602001838103835285818151815260200191508051906020019080838360005b83811015611094578082015181840152602081019050611079565b50505050905090810190601f1680156110c15780820380516001836020036101000a031916815260200191505b50838103825284818151815260200191508051906020019080838360005b838110156110fa5780820151818401526020810190506110df565b50505050905090810190601f1680156111275780820380516001836020036101000a031916815260200191505b50955050505050506020604051808303818588803b15801561114857600080fd5b505af115801561115c573d6000803e3d6000fd5b50505050506040513d602081101561117357600080fd5b81019080805190602001909291905050509150505b92915050565b6000813b9050919050565b60006111a36111aa565b9050919050565b6000806111ca731d3b2638a7cc9f2cb3d298a3da7a90b67e5506ed61118e565b111561126c57731d3b2638a7cc9f2cb3d298a3da7a90b67e5506ed600160006101000a81548173ffffffffffffffffffffffffffffffffffffffff021916908373ffffffffffffffffffffffffffffffffffffffff1602179055506112636040805190810160405280600b81526020017f6574685f6d61696e6e6574000000000000000000000000000000000000000000815250611701565b600190506116fe565b600061128b73c03a2615d5efaf5f49f60b7bb6583eaec212fdf161118e565b111561132d5773c03a2615d5efaf5f49f60b7bb6583eaec212fdf1600160006101000a81548173ffffffffffffffffffffffffffffffffffffffff021916908373ffffffffffffffffffffffffffffffffffffffff1602179055506113246040805190810160405280600c81526020017f6574685f726f707374656e330000000000000000000000000000000000000000815250611701565b600190506116fe565b600061134c73b7a07bcf2ba2f2703b24c0691b5278999c59ac7e61118e565b11156113ee5773b7a07bcf2ba2f2703b24c0691b5278999c59ac7e600160006101000a81548173ffffffffffffffffffffffffffffffffffffffff021916908373ffffffffffffffffffffffffffffffffffffffff1602179055506113e56040805190810160405280600981526020017f6574685f6b6f76616e0000000000000000000000000000000000000000000000815250611701565b600190506116fe565b600061140d73146500cfd35b22e4a392fe0adc06de1a1368ed4861118e565b11156114af5773146500cfd35b22e4a392fe0adc06de1a1368ed48600160006101000a81548173ffffffffffffffffffffffffffffffffffffffff021916908373ffffffffffffffffffffffffffffffffffffffff1602179055506114a66040805190810160405280600b81526020017f6574685f72696e6b656279000000000000000000000000000000000000000000815250611701565b600190506116fe565b60006114ce73a2998efd205fb9d4b4963afb70778d6354ad3a4161118e565b11156115705773a2998efd205fb9d4b4963afb70778d6354ad3a41600160006101000a81548173ffffffffffffffffffffffffffffffffffffffff021916908373ffffffffffffffffffffffffffffffffffffffff1602179055506115676040805190810160405280600a81526020017f6574685f676f65726c6900000000000000000000000000000000000000000000815250611701565b600190506116fe565b600061158f736f485c8bf6fc43ea212e93bbf8ce046c7f1cb47561118e565b11156115f357736f485c8bf6fc43ea212e93bbf8ce046c7f1cb475600160006101000a81548173ffffffffffffffffffffffffffffffffffffffff021916908373ffffffffffffffffffffffffffffffffffffffff160217905550600190506116fe565b60006116127320e12a1f859b3feae5fb2a0a32c18f5a65555bbf61118e565b1115611676577320e12a1f859b3feae5fb2a0a32c18f5a65555bbf600160006101000a81548173ffffffffffffffffffffffffffffffffffffffff021916908373ffffffffffffffffffffffffffffffffffffffff160217905550600190506116fe565b60006116957351efaf4c8b3c9afbd5ab9f4bbc82784ab6ef8faa61118e565b11156116f9577351efaf4c8b3c9afbd5ab9f4bbc82784ab6ef8faa600160006101000a81548173ffffffffffffffffffffffffffffffffffffffff021916908373ffffffffffffffffffffffffffffffffffffffff160217905550600190506116fe565b600090505b90565b806002908051906020019061171792919061171b565b5050565b828054600181600116156101000203166002900490600052602060002090601f016020900481019282601f1061175c57805160ff191683800117855561178a565b8280016001018555821561178a579182015b8281111561178957825182559160200191906001019061176e565b5b509050611797919061179b565b5090565b6117bd91905b808211156117b95760008160009055506001016117a1565b5090565b9056fea165627a7a7230582072dfc5d87e83a0dce5d3b29f5e46b0f1419dcd7eac6f3e442dfa1b0a393430050029",
  "source": "pragma solidity ^0.5.0;\nimport \"./provable.sol\";\n\ncontract Election is usingProvable{\n\n  struct Candidate{\n    uint32 id;\n    string name;\n    uint votes;\n  }\n\n  mapping(uint => bool) private voted;\n  mapping(uint => Candidate) public candidates;\n  uint32 public cancount;\n\n  event temp(string response);\n\n  constructor() public{\n    newCandidate(\"Salad Ass\");\n    newCandidate(\"Black Donald Trump\");\n    newCandidate(\"Keanu Reaves\");\n\n  }\n\n  function verifyVoter(uint voterid) private returns(bool){\n    return true;\n  }\n\n  function castVote(uint vid, uint cid) public returns(string memory){\n    if (verifyVoter(vid) == false){\n      return \"Not a valid Voter ID\";\n    }\n\n    else{\n      if(voted[vid] != true){\n        voted[vid] = true;\n        recordVote(cid);\n      }\n      return \"Your vote has been recorded successfully\";\n  }\n}\n\n  function newCandidate(string memory _name) private{\n    candidates[cancount] = Candidate(cancount, _name, 0);\n    cancount++;\n  }\n\n  function recordVote(uint _id) private{\n    candidates[_id].votes++;\n  }\n\n  function __callback(bytes32 queryID, string memory result) public{\n    if(msg.sender != provable_cbAddress()) revert();\n    emit temp(result);\n  }\n\n  function testOracle() public payable{\n    provable_query(\"URL\",\"json(https://api.pro.coinbase.com/products/ETH-USD/ticker).price\");\n  }\n}\n",
  "sourcePath": "/home/scar/Blockchain/Election-Dapp/contracts/Election.sol",
  "compiler": {
    "name": "solc",
    "version": "0.5.0+commit.1d4f565a.Emscripten.clang"
  },
  "schemaVersion": "3.0.2",
  "updatedAt": "2019-08-21T09:08:20.195Z",
  "devdoc": {
    "methods": {}
  },
  "userdoc": {
    "methods": {}
  }
}