{
  "contractName": "ExampleContract",
  "abi": [
    {
      "constant": true,
      "inputs": [],
      "name": "ETHUSD",
      "outputs": [
        {
          "name": "",
          "type": "string"
        }
      ],
      "payable": false,
      "stateMutability": "view",
      "type": "function"
    },
    {
      "inputs": [],
      "payable": true,
      "stateMutability": "payable",
      "type": "constructor"
    },
    {
      "anonymous": false,
      "inputs": [
        {
          "indexed": false,
          "name": "nextStep",
          "type": "string"
        }
      ],
      "name": "LogConstructorInitiated",
      "type": "event"
    },
    {
      "anonymous": false,
      "inputs": [
        {
          "indexed": false,
          "name": "price",
          "type": "string"
        }
      ],
      "name": "LogPriceUpdated",
      "type": "event"
    },
    {
      "anonymous": false,
      "inputs": [
        {
          "indexed": false,
          "name": "description",
          "type": "string"
        }
      ],
      "name": "LogNewProvableQuery",
      "type": "event"
    },
    {
      "constant": false,
      "inputs": [
        {
          "name": "myid",
          "type": "bytes32"
        },
        {
          "name": "result",
          "type": "string"
        }
      ],
      "name": "__callback",
      "outputs": [],
      "payable": false,
      "stateMutability": "nonpayable",
      "type": "function"
    },
    {
      "constant": false,
      "inputs": [
        {
          "name": "_myid",
          "type": "bytes32"
        },
        {
          "name": "_result",
          "type": "string"
        },
        {
          "name": "_proof",
          "type": "bytes"
        }
      ],
      "name": "__callback",
      "outputs": [],
      "payable": false,
      "stateMutability": "nonpayable",
      "type": "function"
    },
    {
      "constant": false,
      "inputs": [],
      "name": "updatePrice",
      "outputs": [],
      "payable": true,
      "stateMutability": "payable",
      "type": "function"
    }
  ],
  "bytecode": "0x60806040527f11a3fca63f87bd67d7f9f72b744acc8be2193705e7a734ac3a773d35d259e87b6040518080602001828103825260498152602001806119926049913960600191505060405180910390a16119348061005e6000396000f3fe60806040526004361061003f5760003560e01c806327dc297e1461004457806338bbfa5014610116578063673a7e281461027f57806373db084414610289575b600080fd5b34801561005057600080fd5b506101146004803603604081101561006757600080fd5b81019080803590602001909291908035906020019064010000000081111561008e57600080fd5b8201836020820111156100a057600080fd5b803590602001918460018302840111640100000000831117156100c257600080fd5b91908080601f016020809104026020016040519081016040528093929190818152602001838380828437600081840152601f19601f820116905080830192505050505050509192919290505050610319565b005b34801561012257600080fd5b5061027d6004803603606081101561013957600080fd5b81019080803590602001909291908035906020019064010000000081111561016057600080fd5b82018360208201111561017257600080fd5b8035906020019184600183028401116401000000008311171561019457600080fd5b91908080601f016020809104026020016040519081016040528093929190818152602001838380828437600081840152601f19601f820116905080830192505050505050509192919290803590602001906401000000008111156101f757600080fd5b82018360208201111561020957600080fd5b8035906020019184600183028401116401000000008311171561022b57600080fd5b91908080601f016020809104026020016040519081016040528093929190818152602001838380828437600081840152601f19601f82011690508083019250505050505050919291929050505061040f565b005b610287610432565b005b34801561029557600080fd5b5061029e610584565b6040518080602001828103825283818151815260200191508051906020019080838360005b838110156102de5780820151818401526020810190506102c3565b50505050905090810190601f16801561030b5780820380516001836020036101000a031916815260200191505b509250505060405180910390f35b610321610622565b73ffffffffffffffffffffffffffffffffffffffff163373ffffffffffffffffffffffffffffffffffffffff161461035857600080fd5b806005908051906020019061036e9291906117a3565b507f71f1a5645e51a2da828ffcf79cc17da88eb25e1bca8b9dced23210847a4769c1816040518080602001828103825283818151815260200191508051906020019080838360005b838110156103d15780820151818401526020810190506103b6565b50505050905090810190601f1680156103fe5780820380516001836020036101000a031916815260200191505b509250505060405180910390a15050565b6000801b600360008060001b815260200190815260200160002081905550505050565b3073ffffffffffffffffffffffffffffffffffffffff16316104886040518060400160405280600381526020017f55524c000000000000000000000000000000000000000000000000000000000081525061093f565b11156104de577fc4dc360d0a9c0677a3379ae0a3d81e887f761e65fdf3d7e00859d1bcd3c4738960405180806020018281038252604b81526020018061187e604b913960600191505060405180910390a1610582565b7fc4dc360d0a9c0677a3379ae0a3d81e887f761e65fdf3d7e00859d1bcd3c473896040518080602001828103825260358152602001806118496035913960400191505060405180910390a16105806040518060400160405280600381526020017f55524c00000000000000000000000000000000000000000000000000000000008152506040518060600160405280604081526020016118c960409139610cd0565b505b565b60058054600181600116156101000203166002900480601f01602080910402602001604051908101604052809291908181526020018280546001816001161561010002031660029004801561061a5780601f106105ef5761010080835404028352916020019161061a565b820191906000526020600020905b8154815290600101906020018083116105fd57829003601f168201915b505050505081565b60008073ffffffffffffffffffffffffffffffffffffffff16600160009054906101000a900473ffffffffffffffffffffffffffffffffffffffff1673ffffffffffffffffffffffffffffffffffffffff1614806106aa575060006106a8600160009054906101000a900473ffffffffffffffffffffffffffffffffffffffff16611216565b145b156106bb576106b96000611221565b505b600160009054906101000a900473ffffffffffffffffffffffffffffffffffffffff1673ffffffffffffffffffffffffffffffffffffffff166338cc48316040518163ffffffff1660e01b8152600401602060405180830381600087803b15801561072557600080fd5b505af1158015610739573d6000803e3d6000fd5b505050506040513d602081101561074f57600080fd5b810190808051906020019092919050505073ffffffffffffffffffffffffffffffffffffffff166000809054906101000a900473ffffffffffffffffffffffffffffffffffffffff1673ffffffffffffffffffffffffffffffffffffffff161461089857600160009054906101000a900473ffffffffffffffffffffffffffffffffffffffff1673ffffffffffffffffffffffffffffffffffffffff166338cc48316040518163ffffffff1660e01b8152600401602060405180830381600087803b15801561081d57600080fd5b505af1158015610831573d6000803e3d6000fd5b505050506040513d602081101561084757600080fd5b81019080805190602001909291905050506000806101000a81548173ffffffffffffffffffffffffffffffffffffffff021916908373ffffffffffffffffffffffffffffffffffffffff1602179055505b6000809054906101000a900473ffffffffffffffffffffffffffffffffffffffff1673ffffffffffffffffffffffffffffffffffffffff1663c281d19e6040518163ffffffff1660e01b815260040160206040518083038186803b1580156108ff57600080fd5b505afa158015610913573d6000803e3d6000fd5b505050506040513d602081101561092957600080fd5b8101908080519060200190929190505050905090565b60008073ffffffffffffffffffffffffffffffffffffffff16600160009054906101000a900473ffffffffffffffffffffffffffffffffffffffff1673ffffffffffffffffffffffffffffffffffffffff1614806109c7575060006109c5600160009054906101000a900473ffffffffffffffffffffffffffffffffffffffff16611216565b145b156109d8576109d66000611221565b505b600160009054906101000a900473ffffffffffffffffffffffffffffffffffffffff1673ffffffffffffffffffffffffffffffffffffffff166338cc48316040518163ffffffff1660e01b8152600401602060405180830381600087803b158015610a4257600080fd5b505af1158015610a56573d6000803e3d6000fd5b505050506040513d6020811015610a6c57600080fd5b810190808051906020019092919050505073ffffffffffffffffffffffffffffffffffffffff166000809054906101000a900473ffffffffffffffffffffffffffffffffffffffff1673ffffffffffffffffffffffffffffffffffffffff1614610bb557600160009054906101000a900473ffffffffffffffffffffffffffffffffffffffff1673ffffffffffffffffffffffffffffffffffffffff166338cc48316040518163ffffffff1660e01b8152600401602060405180830381600087803b158015610b3a57600080fd5b505af1158015610b4e573d6000803e3d6000fd5b505050506040513d6020811015610b6457600080fd5b81019080805190602001909291905050506000806101000a81548173ffffffffffffffffffffffffffffffffffffffff021916908373ffffffffffffffffffffffffffffffffffffffff1602179055505b6000809054906101000a900473ffffffffffffffffffffffffffffffffffffffff1673ffffffffffffffffffffffffffffffffffffffff1663524f3889836040518263ffffffff1660e01b81526004018080602001828103825283818151815260200191508051906020019080838360005b83811015610c42578082015181840152602081019050610c27565b50505050905090810190601f168015610c6f5780820380516001836020036101000a031916815260200191505b5092505050602060405180830381600087803b158015610c8e57600080fd5b505af1158015610ca2573d6000803e3d6000fd5b505050506040513d6020811015610cb857600080fd5b81019080805190602001909291905050509050919050565b60008073ffffffffffffffffffffffffffffffffffffffff16600160009054906101000a900473ffffffffffffffffffffffffffffffffffffffff1673ffffffffffffffffffffffffffffffffffffffff161480610d5857506000610d56600160009054906101000a900473ffffffffffffffffffffffffffffffffffffffff16611216565b145b15610d6957610d676000611221565b505b600160009054906101000a900473ffffffffffffffffffffffffffffffffffffffff1673ffffffffffffffffffffffffffffffffffffffff166338cc48316040518163ffffffff1660e01b8152600401602060405180830381600087803b158015610dd357600080fd5b505af1158015610de7573d6000803e3d6000fd5b505050506040513d6020811015610dfd57600080fd5b810190808051906020019092919050505073ffffffffffffffffffffffffffffffffffffffff166000809054906101000a900473ffffffffffffffffffffffffffffffffffffffff1673ffffffffffffffffffffffffffffffffffffffff1614610f4657600160009054906101000a900473ffffffffffffffffffffffffffffffffffffffff1673ffffffffffffffffffffffffffffffffffffffff166338cc48316040518163ffffffff1660e01b8152600401602060405180830381600087803b158015610ecb57600080fd5b505af1158015610edf573d6000803e3d6000fd5b505050506040513d6020811015610ef557600080fd5b81019080805190602001909291905050506000806101000a81548173ffffffffffffffffffffffffffffffffffffffff021916908373ffffffffffffffffffffffffffffffffffffffff1602179055505b60008060009054906101000a900473ffffffffffffffffffffffffffffffffffffffff1673ffffffffffffffffffffffffffffffffffffffff1663524f3889856040518263ffffffff1660e01b81526004018080602001828103825283818151815260200191508051906020019080838360005b83811015610fd5578082015181840152602081019050610fba565b50505050905090810190601f1680156110025780820380516001836020036101000a031916815260200191505b5092505050602060405180830381600087803b15801561102157600080fd5b505af1158015611035573d6000803e3d6000fd5b505050506040513d602081101561104b57600080fd5b8101908080519060200190929190505050905062030d403a02670de0b6b3a764000001811115611081576000801b915050611210565b6000809054906101000a900473ffffffffffffffffffffffffffffffffffffffff1673ffffffffffffffffffffffffffffffffffffffff1663adf59f9982600087876040518563ffffffff1660e01b8152600401808481526020018060200180602001838103835285818151815260200191508051906020019080838360005b8381101561111c578082015181840152602081019050611101565b50505050905090810190601f1680156111495780820380516001836020036101000a031916815260200191505b50838103825284818151815260200191508051906020019080838360005b83811015611182578082015181840152602081019050611167565b50505050905090810190601f1680156111af5780820380516001836020036101000a031916815260200191505b50955050505050506020604051808303818588803b1580156111d057600080fd5b505af11580156111e4573d6000803e3d6000fd5b50505050506040513d60208110156111fb57600080fd5b81019080805190602001909291905050509150505b92915050565b6000813b9050919050565b600061122b611232565b9050919050565b600080611252731d3b2638a7cc9f2cb3d298a3da7a90b67e5506ed611216565b11156112f457731d3b2638a7cc9f2cb3d298a3da7a90b67e5506ed600160006101000a81548173ffffffffffffffffffffffffffffffffffffffff021916908373ffffffffffffffffffffffffffffffffffffffff1602179055506112eb6040518060400160405280600b81526020017f6574685f6d61696e6e6574000000000000000000000000000000000000000000815250611789565b60019050611786565b600061131373c03a2615d5efaf5f49f60b7bb6583eaec212fdf1611216565b11156113b55773c03a2615d5efaf5f49f60b7bb6583eaec212fdf1600160006101000a81548173ffffffffffffffffffffffffffffffffffffffff021916908373ffffffffffffffffffffffffffffffffffffffff1602179055506113ac6040518060400160405280600c81526020017f6574685f726f707374656e330000000000000000000000000000000000000000815250611789565b60019050611786565b60006113d473b7a07bcf2ba2f2703b24c0691b5278999c59ac7e611216565b11156114765773b7a07bcf2ba2f2703b24c0691b5278999c59ac7e600160006101000a81548173ffffffffffffffffffffffffffffffffffffffff021916908373ffffffffffffffffffffffffffffffffffffffff16021790555061146d6040518060400160405280600981526020017f6574685f6b6f76616e0000000000000000000000000000000000000000000000815250611789565b60019050611786565b600061149573146500cfd35b22e4a392fe0adc06de1a1368ed48611216565b11156115375773146500cfd35b22e4a392fe0adc06de1a1368ed48600160006101000a81548173ffffffffffffffffffffffffffffffffffffffff021916908373ffffffffffffffffffffffffffffffffffffffff16021790555061152e6040518060400160405280600b81526020017f6574685f72696e6b656279000000000000000000000000000000000000000000815250611789565b60019050611786565b600061155673a2998efd205fb9d4b4963afb70778d6354ad3a41611216565b11156115f85773a2998efd205fb9d4b4963afb70778d6354ad3a41600160006101000a81548173ffffffffffffffffffffffffffffffffffffffff021916908373ffffffffffffffffffffffffffffffffffffffff1602179055506115ef6040518060400160405280600a81526020017f6574685f676f65726c6900000000000000000000000000000000000000000000815250611789565b60019050611786565b6000611617736f485c8bf6fc43ea212e93bbf8ce046c7f1cb475611216565b111561167b57736f485c8bf6fc43ea212e93bbf8ce046c7f1cb475600160006101000a81548173ffffffffffffffffffffffffffffffffffffffff021916908373ffffffffffffffffffffffffffffffffffffffff16021790555060019050611786565b600061169a7320e12a1f859b3feae5fb2a0a32c18f5a65555bbf611216565b11156116fe577320e12a1f859b3feae5fb2a0a32c18f5a65555bbf600160006101000a81548173ffffffffffffffffffffffffffffffffffffffff021916908373ffffffffffffffffffffffffffffffffffffffff16021790555060019050611786565b600061171d7351efaf4c8b3c9afbd5ab9f4bbc82784ab6ef8faa611216565b1115611781577351efaf4c8b3c9afbd5ab9f4bbc82784ab6ef8faa600160006101000a81548173ffffffffffffffffffffffffffffffffffffffff021916908373ffffffffffffffffffffffffffffffffffffffff16021790555060019050611786565b600090505b90565b806002908051906020019061179f9291906117a3565b5050565b828054600181600116156101000203166002900490600052602060002090601f016020900481019282601f106117e457805160ff1916838001178555611812565b82800160010185558215611812579182015b828111156118115782518255916020019190600101906117f6565b5b50905061181f9190611823565b5090565b61184591905b80821115611841576000816000905550600101611829565b5090565b9056fe50726f7661626c65207175657279207761732073656e742c207374616e64696e6720627920666f722074686520616e737765722e2e50726f7661626c6520717565727920776173204e4f542073656e742c20706c656173652061646420736f6d652045544820746f20636f76657220666f7220746865207175657279206665656a736f6e2868747470733a2f2f6170692e70726f2e636f696e626173652e636f6d2f70726f64756374732f4554482d5553442f7469636b6572292e7072696365a165627a7a72305820c4085ea6c5eabf302ad608b81412b23d5899e1ad00ee5a3fb3b0308de88ef9780029436f6e7374727563746f722077617320696e697469617465642e2043616c6c207570646174655072696365282920746f2073656e64207468652050726f7661626c652051756572792e",
  "source": "pragma solidity ^0.5.0;\nimport \"./provable.sol\";\n\n\ncontract ExampleContract is usingProvable {\n\n   string public ETHUSD;\n   event LogConstructorInitiated(string nextStep);\n   event LogPriceUpdated(string price);\n   event LogNewProvableQuery(string description);\n\n    constructor() public payable {\n       emit LogConstructorInitiated(\"Constructor was initiated. Call updatePrice() to send the Provable Query.\");\n   }\n\n   function __callback(bytes32 myid, string memory result) public{\n       if (msg.sender != provable_cbAddress()) revert();\n       ETHUSD = result;\n       emit LogPriceUpdated(result);\n   }\n\n   function updatePrice() public payable {\n       if (provable_getPrice(\"URL\") > address(this).balance) {\n           emit LogNewProvableQuery(\"Provable query was NOT sent, please add some ETH to cover for the query fee\");\n       } else {\n           emit LogNewProvableQuery(\"Provable query was sent, standing by for the answer..\");\n           provable_query(\"URL\", \"json(https://api.pro.coinbase.com/products/ETH-USD/ticker).price\");\n       }\n   }\n}\n",
  "sourcePath": "/home/scar/Blockchain/Election-Dapp/contracts/Election.sol",
  "compiler": {
    "name": "solc",
    "version": "0.5.8+commit.23d335f2.Emscripten.clang"
  },
  "schemaVersion": "3.0.11",
  "updatedAt": "2019-08-18T13:41:45.591Z",
  "devdoc": {
    "methods": {}
  },
  "userdoc": {
    "methods": {}
  }
}